:10000000004000205D0E0000990E00009B0E0000D5
:1000100000000000000000000000000000000000E0
:100020000000000000000000000000009D0E000025
:1000300000000000000000009F0E0000A10E000064
:10004000A30E0000A10A00006D0C0000A30E00002A
:10005000A30E000000000000A30E0000A30E00008D
:10006000A30E0000A30E0000A30E0000A30E0000CC
:10007000A30E0000A30E0000A30E0000A30E0000BC
:10008000A30E0000E1020000A30E0000A30E00007A
:10009000A30E0000A30E0000A30E0000A30E00009C
:1000A000A30E0000A30E00000000000000000000EE
:1000B0000000000000000000000000000000000040
:1000C00010B5064C2378002B07D1054B002B02D02E
:1000D000044800E000BF0123237010BDF40000209D
:1000E00000000000E064000008B5084B002B03D0BE
:1000F0000748084900E000BF07480368002B03D009
:10010000064B002B00D0984708BDC04600000000F9
:10011000E0640000F8000020F00000200000000073
:10012000164B002B00D1144B9D46402292029A1A86
:10013000924600218B460F461348144A121A00F0CB
:10014000A6FF0F4B002B00D098470E4B002B00D082
:1001500098470020002104000D000D48002802D01F
:100160000C4800E000BF00F063FF2000290000F011
:100170000BFE00F047FFC0460000080000400020D2
:100180000000000000000000F4000020C80500206E
:1001900000000000000000000122114B5A60002303
:1001A0001048002104E0DA00115082185160013338
:1001B000032BF8D900230C4A1360A122D20008496E
:1001C0008B500A4BC4229200985809490140802064
:1001D000000201439950802292021A607047C04683
:1001E00000100140200500201001002000E100E087
:1001F000FF00FFFF38B5041C1202120AC0001B4D9D
:1002000028184360002903D1E3000020585102E080
:10021000E30016495A50164B164959588A18A82017
:10022000400021188900CA50221C5032920000213F
:10023000D150221C1032012191400A1CD121890089
:100240005A50C12189005A500B4B1B68002B04D116
:1002500000F074F80122064B1A600123A3401C1C15
:10026000054B1A6814431C6038BDC04620050020A9
:1002700000100140040500001001002010B50F49D6
:10028000C200002353508A1853600122131C83407C
:100290000B490C689C430C6010308240101C094ACA
:1002A000D22189005050C22189005050002C04D125
:1002B0000122044B5A6000F079F810BD200500209F
:1002C000100100200010014001238340181C034B43
:1002D0001B681840431E98417047C046100100201B
:1002E000F8B50024134D144F3E1C20E0231C50335E
:1002F0009B005B59002B19D0231C50339B0000221C
:100300005A51E300FB185B68002B00D09847E300CC
:100310009B59002B03D1E0B2FFF7B0FF06E0A82104
:1003200049006218920051595B1853510134032C53
:10033000DCD9F8BD001001402005002010B5832352
:10034000DB008022D205D358DA0729D48023DB05CD
:100350000222A321C9005A50C12189005A50114AD2
:10036000106910210143116100218222520099502D
:1003700001229A60191C8222520000E020BF8B5893
:10038000002BFBD08023DB050022822149005A503C
:100390000124C021490004484450C12189005A5019
:1003A00010BDC04600ED00E000E100E00122802326
:1003B000DB05DA607047C04610B5164B8022D205C7
:1003C000D358DA0725D48023DB050122C121890017
:1003D0005A5011490C6910202043086100208021E7
:1003E000490058501A60191C8022520000E020BFBA
:1003F0008B58002BFBD08023DB0500228021490095
:100400005A500124C021490004484450C1218900A8
:100410005A5010BD0C04000000ED00E000E100E0C7
:1004200001228023DB055A607047C046124B1B78BF
:100430000020012B1FD1114B1B681A071BD1104B39
:100440001B68F022134005D10E4A12680120F021EA
:10045000114210D0102B05D10A4A12680120F02158
:10046000114208D00020302B05D1064B1B68F0202C
:100470001840434258417047E00F00F0E40F00F08D
:10048000E80F00F0EC0F00F00A4B1B780020012B66
:100490000FD1094B1B681A070BD1084B1B68F022C0
:1004A0001340402B05D1064B1B68F02018404342F7
:1004B00058417047E00F00F0E40F00F0E80F00F043
:1004C000EC0F00F0014A024B1A6070470024F40060
:1004D0000400002008B5FFF7A9FF002806D0094A4C
:1004E000094B1A6080221202084B1A60FFF7CCFFFA
:1004F000002805D00121C123DB008022D205D15084
:1005000008BDC046DFFF07C004050040186C00406E
:10051000F8B54F464646C0B4204B1C68132C38D85B
:100520001F4B0122DA641F4A9B581B09994666003B
:1005300033191B019846194D2F1DF8181A494523E8
:10054000CA5C0232443100F099FD434628334A46E2
:10055000FA50164B164A9A58403AD2B24646AD194E
:1005600030352A708021C9005B58012B06D10B4918
:100570008B193033802149420A431A70074B6200BD
:10058000121912019A1831320749C96E11700134DB
:100590001C600CBC90469946F8BDC0461401002072
:1005A000008000404C050000940400200010004032
:1005B0005405000008B580218903174BA022D205FD
:1005C000D1500022154B1A60A123DB00144AD258E7
:1005D000022A04D002231A2A02D1502300E01A234F
:1005E000A122D2000E498B50022B04D01A3B5A1E76
:1005F0009341263300E02523094A0A49535000213C
:1006000080235B00D150012353600120C022D2011E
:10061000054BFFF7EFFD08BD0C050000140100209D
:100620000010004054050000290A000010B5041C09
:100630001849022200F0FCFD00282AD10234201CB7
:10064000154900F0EBFD00280AD1FFF73DFE002818
:100650001FD1012180221202104BFFF7CBFD18E0C1
:10066000201C0F4900F0DAFD002812D10D4B0021AB
:1006700088225200995001221A61191C88225200C6
:100680008B58002BFCD00020FFF7F8FD0120FFF76E
:10069000F5FD10BDB45F0000B85F0000B5050000B7
:1006A000BC5F000000100040F0B557464E4645467E
:1006B000E0B4051C884600269BE0AF5DB946741C7B
:1006C0002A19924611780A2927D008D807291CD858
:1006D00002291ED2002910D0012912D035E0152997
:1006E00004D8142921D212291BD02EE0192928D090
:1006F000FF2922D0162928D11BE0424800F0E4FC53
:1007000026E0414800F0E0FC22E0404800F0DCFC3C
:100710001EE03F4800F0D8FC1AE03E4800F0D4FC50
:1007200016E03D4800F0D0FC12E03C4800F0CCFC64
:100730000EE03B4800F0C8FC0AE03A4800F0C4FC78
:1007400006E0394800F0C0FC02E0384800F0BCFC8C
:1007500052461378162B43D89B00354AD3589F46F0
:10076000AE19B178334800F0AFFC41E00236791E93
:10077000AA19314800F0A8FC3AE0AE19F178B27835
:100780002E4800F0A1FC2E4800F09EFC03262D4BC5
:100790009A4605E0AB19195D504600F095FC01360C
:1007A0004E45F7D37C2000F0B9FC21E0264800F04C
:1007B0008BFC7E1E254A914605E0AB19195D484623
:1007C00000F082FC013E002EF7D17C2000F0A6FC58
:1007D0000EE0AB19195D504600F076FC013602E0E0
:1007E00001261A4B9A464E45F3D37C2000F096FC26
:1007F000E619464500D260E71CBC90469946A246E1
:10080000F0BDC046C05F0000E05F0000E85F000090
:10081000F05F0000F85F0000086000001C6000004E
:1008200030600000406000005C6000006860000014
:100830003C5F0000DC6000007C6000008460000021
:100840003860000098600000A0600000A860000010
:10085000F0B583B0051C011C283101A8042200F06A
:100860000DFC554800F030FC019800F0D7FA5348D1
:1008700000F02AFC2C242B5D7F211940504800F009
:1008800023FC2D23E95C4F4800F01EFC2B57002B66
:1008900001DA4D4900E04D494D4800F015FC4D4846
:1008A00000F012FC2B780F221340062B1FD89B0060
:1008B000494AD3589F46494800F006FC1AE0484888
:1008C00000F002FC16E0474800F0FEFB12E046484C
:1008D00000F0FAFB0EE0454800F0F6FB0AE0444861
:1008E00000F0F2FB06E0434800F0EEFB02E0424875
:1008F00000F0EAFB2B785A0601D5404900E0404958
:10090000404800F0E1FB0023EB56002B01DA3B49A5
:1009100000E03B493C4800F0D7FB6B783F21194091
:100920003A4800F0D1FB6F780237FFB2384800F048
:10093000CBFB0724374E05E0295D301C00F0C4FBDB
:10094000013CE4B2022CF7D8A978334800F0BCFB94
:100950000A2000F0E3FB2C23EB56002B27DA2F486C
:1009600000F0B2FB00242E4E05E0295D301C00F0A3
:10097000ABFB0134E4B2BC42F7D30A2000F0CEFB5B
:100980002B7807221340022B07D002D8002B11D15D
:1009900003E0042B01D0062B0CD1391C0839281C8C
:1009A0000830FFF781FE0A2000F0B8FB02E01D4886
:1009B00000F02AFC03B0F0BDC8600000D060000069
:1009C000D4600000E0600000B0600000B46000008F
:1009D000EC600000F4600000985F0000FC60000024
:1009E00008610000186100002C61000038610000FF
:1009F000446100005461000064610000B8600000C0
:100A0000C0600000706100007C610000886100002F
:100A10009061000098610000A8600000A0610000E3
:100A200098600000A861000070B5194B0021882271
:100A30005200995001221A61191C882252008B58C9
:100A4000002BFCD0134B1B68002B15D0124800F074
:100A5000DBFB00240F4D2E1C043606E0600000195D
:100A600000013018FFF7F4FE01342B689C42F5D3E7
:100A70000A2000F053FB02E0084800F0C5FB80218B
:100A80008903A123DB00A022D205D15070BDC0464E
:100A90000010004014010020CC610000E86100005B
:100AA00008B586235B00144AD358012B0BD1C12310
:100AB0009B00D3581A0706D5002186235B000E4AF7
:100AC000D150FFF725FD8E235B000B4AD358012B35
:100AD00010D1C1239B00D3581A060BD5064B002119
:100AE0008E225200995001229A61A922D2009A586E
:100AF000024BDA6608BDC046001000409404002096
:100B000010B5344B344A00219950012199500320EB
:100B1000A222D200985080225205EC2014582F486F
:100B20001C50F0201458E520C0001C50F42014582C
:100B30002B481C50F8201458E620C0001C50FC2004
:100B40001058284A9850A322D2009C58C0208002F6
:100B500020439850244C25481C508E2424481C5077
:100B6000A620C0001950985880218904014399504B
:100B700098582821014399500421FF311D4A99506A
:100B80001D491E4A99501E49A722D20099501D4A5C
:100B9000985884214900014399501B4A1B4944310C
:100BA00099505021A122D2009950312180229200E7
:100BB00099509821C12292009950154BC022920061
:100BC000985814490140C020000201439950022264
:100BD0001A6010BD00100040FC0F00002407000048
:100BE0002C0700003407000000D6BE891C05000059
:100BF0002405000034050000555555003C05000053
:100C00005B060001140500000405000094040020A8
:100C100000E100E0FF00FFFF08B5024800F05EF8C9
:100C200008BDC0462D06000008B50A2809D00C4BA7
:100C30001B687E2B13D80B4AD0540133084A13602B
:100C40000DE0074B1B680021064AD154064B1B6878
:100C5000002B01D0101C98470022014B1A6008BDE0
:100C600004050020440500204005002008B509497E
:100C7000842252008B58012BFCD1064B0021842288
:100C800052009950A322D2009858C0B2FFF7CCFF6F
:100C900008BDC04600200040074B084AD050111C38
:100CA0008E2252008B58012BFCD100218E235B0039
:100CB000024AD1507047C0461C0500000020004089
:100CC00070B50E1C151C002403E0305DFFF7E4FF37
:100CD0000134281EA042F8D870BDC046014B1860F0
:100CE0007047C0464005002070B500211B4B1960BD
:100CF000A020C00501221A4BC2501A4BC1501A4BFA
:100D000009251A4C1D510B25194C1D51E424E400F2
:100D10000251E524E40001510824A120C0001C5028
:100D20000A24A220C0001C5012481A50124C13482A
:100D30001C500420A024E40018518424640019519C
:100D4000C121890058500E49C024A4000E590D4DF0
:100D500035400D5108609A601A6070BD4005002052
:100D6000240700002C070000002000400C050000B4
:100D7000140500006C05000000705F0724050000EA
:100D800000E100E0FFFF00FF10B5FFF715FB00F0EA
:100D90002DF8FFF7D3FAA023DB050124104A9C505D
:100DA000A122D200802189039950EB21C9005C5017
:100DB0008021C90399500B495C5080210904995046
:100DC000FFF7EAF9FFF79CFEFFF78EFF8023DB05B4
:100DD0009C67054800F018FAFFF71EFF30BFFDE7DB
:100DE000540700005C0700000C62000008B5FFF724
:100DF000E3FA084B01225A60002107481950A2204B
:100E0000C00019500320A121C9005850DA601A60AF
:100E100008BDC046008000400405000010B5041C59
:100E20000B4B984204D80B48211C00F04DF90DE003
:100E3000FA21890000F036F8FFF7F0FF201CFA21B4
:100E4000890000F0D3F8044800F03EF910BDC04618
:100E5000E7030000686200006C6200000848026856
:100E60000F210A4302600749074A084B9B1A03DD1A
:100E7000043BC858D050FBDC054880470548004774
:100E800024050040EC64000000000020F400002075
:100E9000D504000021010000FEE7FEE7FEE7FEE7C3
:100EA000FEE7FEE7002934D00123002210B4884277
:100EB0002CD301242407A14204D2814202D2090189
:100EC0001B01F8E7E400A14204D2814202D24900AA
:100ED0005B00F8E7884201D3401A1A434C08A0424D
:100EE00002D3001B5C0822438C08A04202D3001BE3
:100EF0009C082243CC08A04202D3001BDC082243FA
:100F0000002803D01B0901D00909E3E7101C10BC1D
:100F10007047002801D00020C04307B4024802A156
:100F20004018029003BDC046D90000000029F0D04F
:100F300003B5FFF7B9FF0EBC4243891A1847C046F4
:100F4000002941D010B4041C4C40A44601230022C7
:100F5000002900D54942002800D5404288422CD3C0
:100F600001242407A14204D2814202D209011B01BB
:100F7000F8E7E400A14204D2814202D249005B00BA
:100F8000F8E7884201D3401A1A434C08A04202D322
:100F9000001B5C0822438C08A04202D3001B9C0863
:100FA0002243CC08A04202D3001BDC0822430028C5
:100FB00003D01B0901D00909E3E7101C6446002C8B
:100FC00000D5404210BC7047002806D003DB00204B
:100FD000C043400801E08020000607B4024802A197
:100FE0004018029003BDC046190000000029EBD054
:100FF00003B5FFF7A7FF0EBC4243891A1847C04646
:101000007047C046084B10B5041C002B02D00021CD
:1010100000E000BF054B1868836A002B00D098479A
:10102000201C04F07DFFC046000000007862000034
:1010300070B50E4B0E4D0024ED1AAD101E1CAC42C7
:1010400004D0A300F35898470134F8E704F06AFF8E
:10105000084B094D0024ED1AAD101E1CAC4204D003
:10106000A300F35898470134F8E770BDE80000206A
:10107000E8000020E8000020EC00002010B500236C
:10108000934203D0CC5CC4540133F9E710BD031C78
:101090008218934202D019700133FAE770470EB4F8
:1010A00017B5041E04D08369002B01D101F0E2FEC4
:1010B00006ABA168201C059A019300F005F91EBC3F
:1010C00008BC03B0184700000FB40B4B13B51C68E5
:1010D000002C05D0A369002B02D1201C01F0CAFE10
:1010E00005ABA168201C049A019300F0EDF816BC32
:1010F00008BC04B01847C0466800002038B5041C7E
:101100000D1C002804D08369002B01D101F0B2FE30
:10111000291CA268201C02F08FFE38BD38B5084B90
:10112000051C1C68002C05D0A369002B02D1201CD3
:1011300001F0A0FE291CA268201C02F07DFE38BD33
:101140006800002070B5051C0E1C002804D08269C0
:10115000002A01D101F08EFEAC68A3891A0702D5DE
:101160002369002B19D1281C211C00F07FFE0028C8
:1011700013D00120404245E03178002B1BDAA269F0
:10118000934211DA281C221C00F00CFE013043426D
:101190005841C0B20028ECD10136A3683278013B37
:1011A000A360002AE8D10CE023681970236819783D
:1011B0000A2903D1E6E7226811702368013323600E
:1011C000EAE7002B17DAA269934208DB22680A23B8
:1011D0001370236819780A2911D1281C01E0281CF2
:1011E0000A21221C00F0DEFD013043425841C0B20A
:1011F000002806D0BDE722680A2313702368013354
:1012000023600A2070BD000008B5034B011C18685C
:10121000FFF798FF08BDC0466800002002780B78F1
:1012200001300131002A01D09A42F7D0D01A70471C
:10123000031C002010B582420FD01C780878A04211
:1012400001D1012A03D118780B78C01A05E0013AC0
:101250000028F8D001330131EFE710BD936810B5D5
:10126000013B9360002B05DA9469A34208DBCBB203
:101270000A2B05D01368581C10601970C8B201E021
:1012800000F090FD10BDF8B5061C0F1C141CD518FD
:10129000AC4208D02178301C3A1CFFF7DFFF013444
:1012A000431CF5D100E00020F8BD936810B5141C74
:1012B000002B02D15360181C04E001F067FE0022ED
:1012C000A260626010BD0000F0B59FB0061C0F1C4C
:1012D00003920593002804D08169002901D101F00F
:1012E000C9FD754B9F4201D1776808E0734B9F425F
:1012F00001D1B76803E0724B9F4200D1F768BB8908
:101300001A070AD53B69002B07D006AD00236B6195
:1013100020236B763023AB763BE0301C391C00F089
:10132000A5FD0028F1D001204042C2E0059A111D20
:1013300012680591002A76DB0992013423782E2B5E
:1013400000D181E021785F48032202F061F8002893
:1013500007D05C492A68431A40209840104328600F
:1013600001342178631C584806220393297602F041
:101370004FF8002800D18AE0544B002B7ED1059B0A
:10138000072207339343083305936A690499531876
:101390006B61039C2378002B04D10399611A02919D
:1013A00010D003E0252BF8D00134F3E7301C391CB2
:1013B000039A029BFFF767FF013075D06A690299B3
:1013C00053186B612378002B6ED0012252426A6061
:1013D0006A4600235B3201342B60EB60AB60137014
:1013E000AB6521783A48052202F012F8002808D0AF
:1013F000374A0134831A012098402B68184328602B
:10140000EFE72B68D90603D56A4620215B321170BD
:101410001A0703D56A462B215B32117022782A2ADB
:1014200084D0099B05E05242EA60022213432B60FC
:1014300083E72278303A092A04D80A214B43013441
:101440009B18F6E7099379E763782A2B09D1059B66
:1014500002341A1D1B680592002B0DDA01235B4232
:101460000AE0013400232278303A092A04D80A21FC
:101470004B4301349B18F6E7079363E705AB0093F2
:10148000301C291C3A1C134B00F0D6F807E005ABC2
:101490000093301C291C3A1C0E4B00F06DFB04908D
:1014A0000499013100D070E7BB895A0600D53AE7AC
:1014B0000B981FB0F0BDC046D0620000F062000083
:1014C000106300008262000086620000391600008E
:1014D0007C6200008712000038B5131C044A051C0A
:1014E0000C1C1068291C221CFFF7EEFE38BDC046FC
:1014F0006800002000000000F0B58BB0161C1C1C1A
:10150000129904D580221206A4182D2300E000238E
:10151000149F0B7020239F43462F08D03A1C453A56
:1015200051424A41109902238918109100E0032387
:101530000093139B109A029308AB039309AB01929B
:101540000493321C231C00F08FFD051C472F02D191
:101550001199C9072CD5109969180791462F14D1F4
:101560002B78302B0CD1301C211C164B144A02F066
:1015700047FE002804D1109A012313999B1A0B608F
:10158000139A07991368C9180791301C211C0D4B39
:101590000B4A02F035FE002801D0079A0992099BF8
:1015A00007998B4204D25A1C099230221A70F6E72E
:1015B000099B281C5A1B159B1A600BB0F0BDC04636
:1015C0000000000000000000F0B52B2385B0051CD2
:1015D0000C1C0270861C002901DA4C422D236B7012
:1015E000092C1EDD6F460E37201C0A210197FFF7DC
:1015F000FDFC30313970201C0A21FFF7A1FC013FAE
:10160000041E092CF0DC019B3034013B1C706A463F
:101610000F32301C934209D21A78013332700136EE
:10162000F5E73023E4183370B01C7470401B05B02C
:10163000F0BD000000000000F0B593B00C1C0A9251
:101640000B93189E051C01F06BFE00680C9002F0D5
:10165000C5FC0023109333680722073393431A1CF9
:1016600008320D90277E186859683260A064E164E2
:1016700002F02AFC012819D1A06CE16CB94BB84AE0
:1016800002F0C4FD002803D0231C2D2243331A701E
:10169000472F01D8B44E00E0B44E032320682361E5
:1016A0000423984300212060099191E0A06CE16C33
:1016B00002F00AFC236800280CD1472F01D8AC4E59
:1016C00000E0AC4E032222610422934300222360F7
:1016D00009927DE06268561C01D1062207E02021B4
:1016E000381C8843472803D1002A01D101226260B7
:1016F0008022D2001343236001936B463B33029355
:101700000FAB6168039310AB059300230091069320
:101710000497A26CE36C281CFFF7EEFE20233A1C12
:10172000061C9A430F99472A07D1CB1C02DB60683D
:1017300081422EDD023FFFB201E0652F12D8201C4E
:1017400001393A1C50300F91FFF73EFF109B099072
:10175000C2182261012B02DC2168C9072FD5013292
:1017600022612CE0662F15D16368002908DD216114
:10177000002B02D12268D2071DD50133C91811E010
:10178000002B03D120680122104200D09A1C226154
:1017900011E06727109A914206DB22682161D20787
:1017A00009D50131216106E00123002901DC022372
:1017B0005B1AD31823610F9B0020A36509906B4629
:1017C0003B331B78002B03D0231C2D2243331A708C
:1017D0000B99281C009111AA211C0A9B00F058F9B2
:1017E000013002D1012040424CE12268530504D46B
:1017F000281C0A99321C236967E0652F00D8E0E0B5
:10180000A06CE16C574B564A02F0FAFC00282BD032
:10181000281C0A99584A01230B9EB0470130E1D099
:101820000F9F1098874207DB2168C90704D42768F7
:10183000BF0700D50EE113E1281C0A990C9A0D9BF5
:101840000B9EB0470130CDD00026109B013B9E423D
:10185000EDDA221C281C0A991A3201230B9FB84783
:101860000130BFD00136F0E70F98002830DC281C8B
:101870000A99414A01230B9FB8470130B2D00F9813
:10188000002805D11099002902D12268D207CED5AF
:10189000281C0A990C9A0D9B0B9FB8470130A1D0C8
:1018A00000270F980997099F43420A99281C9F42D5
:1018B00009DA221C1A3201230B9FB847013091D05C
:1018C000099F0137EDE7109B321C0B9EB047B5E036
:1018D000109FA36D08979F4200DD0893089F002F7B
:1018E00001DC002714E0281C0A99321C089B0B9F7E
:1018F000B8470130F5D175E7221C281C0A991A3225
:1019000001230B9FB847013000D16BE7099F0137D6
:101910000997089FA36DFA43D2173A40099F9A1A74
:101920009742E9DB0F981099F318099388420EDB70
:101930002268D2070BD4109B0F9FF618DB1B099F60
:10194000F61B9E4200DD1E1C002E17DC1FE0281C2B
:101950000A990C9A0D9B0B9FB8470130EBD141E7D8
:1019600000000000000000008D6200009162000095
:1019700095620000996200009D620000281C0A998F
:10198000099A331C0B9FB847013000D12AE7002782
:101990000BE0221C281C0A991A3201230B9FB8471E
:1019A000013000D11EE7099F0137099710980F9960
:1019B000F343DB17099F421A3340D31A9F42E8DBF7
:1019C00035E71098012802DC01231A423AD0281C7E
:1019D0000A99321C01230B9FB847013000D101E75F
:1019E000281C0A990C9A0D9BB847013000D1F9E6E2
:1019F000A06CE16C254B244A02F002FC002801D0C7
:101A0000002610E0109B721C013B281C0A991CE068
:101A1000221C281C0A991A3201230B9FB847013057
:101A200000D1DFE60136109B013B9E42F0DB221C19
:101A3000281C0A995032099B0B9FB847013000D0EF
:101A4000F5E6CFE60A99281C321C0B9EB047013000
:101A5000EDD1C7E60026E0681199431A9E4205DBE6
:101A6000119BE06898420DDA181C0BE0221C281C20
:101A70000A99193201230B9FB847013000D1B1E612
:101A80000136E8E713B0F0BD0000000000000000E0
:101A9000F7B5151C01930A698B68061C0C1C934250
:101AA00000DA131C221C2B6043321278002A01D06A
:101AB00001332B602068800602D52B6802332B602F
:101AC000216806270F401FD0231C43331B785A1E62
:101AD0009341226892061FD5E11840313020C8702A
:101AE000211C5A1C45310978A21840320233D170AA
:101AF00012E0221C301C019919320123089FB847BB
:101B0000013011D0009F01370097E0682968009FDD
:101B1000431A9F42EDDBD7E7221C301C0199433268
:101B2000089FB847013002D10120404223E02068DD
:101B300006212B68E26801400025042903D1D51A4B
:101B4000EB43DB171D40A26823699A4201DDD31ADB
:101B5000ED1800270097009FAF420BDA221C301CC3
:101B600001991A320123089FB8470130DCD0009F49
:101B70000137EFE70020FEBDF0B58BB007930D1CD9
:101B80000B7E4335069205900C1C109A04956E2B23
:101B900000D1A7E011D8632B22D009D8002B00D1A7
:101BA000B0E0582B00D0C0E045310B707B4D4EE0CB
:101BB000642B1CD0692B1AD0B7E0732B00D1A5E0A1
:101BC00009D86F2B29D0702B00D0AEE00E682023EF
:101BD00033430B6036E0752B1FD0782B32D0A4E056
:101BE00013680D1C191D423511601B689FE02168A8
:101BF00013680E0603D5191D11601E6805E048061E
:101C0000F9D5191D116000215E5E644B002E3BDA90
:101C1000049D2D2276422A7036E0216813680E0654
:101C200003D5191D11601E6804E04806F9D5191D79
:101C30001E881160594B227E039308276F2A1ED0FD
:101C40000A271CE0231C78214533554D1970116873
:101C50002368081D039510601E0601D50E6802E07A
:101C60005806FBD50E88D90702D5202213432360DE
:101C70001027002E03D1226820239A432260231CC0
:101C8000002243331A7001E003930A276368A360BC
:101C9000002B03DB2568042295432560002E02D12A
:101CA000049D002B0ED0049D301C391CFFF73EF91B
:101CB0000398013D435C301C2B70391CFFF7F2F890
:101CC000061EF1D1082F09D12168C90706D562681F
:101CD00023699A4202DC013D30232B70049E731B62
:101CE00023612AE0086813684969050604D5181DB0
:101CF00010601B68196005E04606F8D5181D1060D5
:101D00001B68198000232361049D16E01368191DC8
:101D100011601D68281C02F061F963682061984217
:101D200000D923612069606004E0251C42352B70D6
:101D300001232361049E00233370079E05980096BB
:101D4000211C09AA069BFFF7A3FE013002D1012046
:101D5000404221E02A1C059806992369079DA8475F
:101D60000130F4D02668B60705D4099BE068984294
:101D700012DA181C10E00025E0680999431A9D4208
:101D8000F3DA221C0598069919320123079EB04701
:101D90000130DCD00135EFE70BB0F0BD9F620000F1
:101DA000B062000070B5051C0E1C141C002804D085
:101DB0008269002A01D101F05DF8234B9C4201D1D8
:101DC0006C6808E0214B9C4201D1AC6803E0204BD9
:101DD0009C4200D1EC68A369A360A3891A070AD5C5
:101DE0002369002B07D022682369F6B2D01A6269F2
:101DF00090420FDB08E0281C211C00F037F8002877
:101E0000F1D0012040421DE0281C211C00F092FF6F
:101E10000028F6D1A3680130013BA36023685A1C57
:101E200022601E706369984205D0A389301CDA07CE
:101E300008D50A2E06D1281C211C00F07BFF0028A3
:101E4000DFD1301C70BDC046D0620000F0620000DF
:101E50001063000008B50A1C0349031C0868191C1C
:101E6000FFF7A0FF08BDC04668000020344B70B5E6
:101E70001D68061C0C1C002D05D0A969002902D183
:101E8000281C00F0F7FF2F4B9C4201D16C6808E042
:101E90002D4B9C4201D1AC6803E02C4B9C4200D1FD
:101EA000EC68A28993B2190721D4D90605D4092375
:101EB000336040231A43A2813FE05A0713D5616B78
:101EC000002908D0231C4433994202D0301C01F071
:101ED000F1FE00236363A38924229343A38100239B
:101EE000636023692360A38908221343A3812169C6
:101EF00000290BD1A389A02292001A4080239B00C5
:101F00009A4203D0301C211C01F01EFAA389012241
:101F10001A4005D061690022A2604A42A26103E032
:101F2000990700D46269A26022690020824206D12A
:101F3000190604D540221343A3810120404270BDFD
:101F400068000020D0620000F06200001063000012
:101F5000F0B589B006910B690169051C002699420C
:101F60007FDB069C5F1E143404940499BC0009199D
:101F7000021C0B68143205911419191C01312068D8
:101F80000392FEF78FFF0290B04238D00499039B72
:101F90008C4601960796624604329446043A40CA3B
:101FA0000299B0B24843310C029E019A7143101855
:101FB000020C51180A0C01921A6880B296B2079A64
:101FC00089B2B618301A1E68320C521A06149219C9
:101FD000111480B21204059E1043079101C3664597
:101FE000D9D2216800290AD1039E043CB44201D809
:101FF0002F6104E021680029FAD1013FF4E7281C91
:10200000069901F07DFC00282ADB029C039A01342A
:10201000049B02940024116840CB88B20019146814
:10202000B1B2401A360C210C891B041409190C1486
:1020300080B20904059E014302C29E42EBD2039C7A
:10204000BB00E3181E68002E0AD1039C043BA34288
:1020500001D82F6104E01E68002EFAD1013FF4E799
:10206000029E301C09B0F0BDF0B5446A9BB00790E9
:10207000239D04920593002C08D1102001F0B4F99F
:1020800007994862446084600460C460079C636A86
:10209000196800290AD05B6801229A404B608A6067
:1020A000201C01F011FA636A00221A6005980028CA
:1020B00005DA01232B6043005B08059301E0002350
:1020C0002B60059EBE4B321C1A409A4218D1BD4B64
:1020D000229C049D2360002D01D1360301D0BA4813
:1020E00000E0BA48249C002C01D100F093FDC27896
:1020F000C31C002A00D00533249D2B6000F08AFD0C
:10210000049C059DA54BA44A201C291C02F078F8CC
:10211000071E0CD0229C249D01232360002D01D199
:1021200000F075FDAA482860013800F073FD19AB76
:10213000009318AB019307982B1C221C01F0D6FCCE
:1021400073000A905B0D09D0201CA24C2A03120BCD
:10215000211C1143A04A16979E181BE0189B199C3E
:102160001D199E4B9D4209DB9D49049A9D4B6818A1
:10217000C2405B1B101C9E40304304E09A48049B05
:10218000401B8340181C03F037FE984C6E1E01253F
:1021900009191695824A834B03F086FA824A834BCB
:1021A00002F0F0FF824A834B02F058F8041C301C06
:1021B0000D1C03F0E3FD804A804B02F0E3FF021C9C
:1021C0000B1C201C291C02F049F8041C0D1C03F0F8
:1021D000A1FD724B704A0690291C201C02F016F8D3
:1021E00000280DD0069803F0C9FD0B1C021C291C09
:1021F000201C02F005F8069C43424341E41A069471
:10220000069C01251395162C10D8794AE300D318A3
:1022100018685968049A059B02F00CF8002804D04D
:10222000013C00250694139500E0139018980024B3
:10223000861B351C0294013D099504D5099C002597
:10224000644202940995069C002C06DB099D1294B9
:102250002D19002409950D9407E0069C029D2D1B65
:102260000295654200240D951294209D0124092DAC
:1022700024D8052D02DD043D209500242098023845
:10228000032823D801F0A2FF060E0204012502E074
:10229000012508E000251095219D002D1FDD0C95DE
:1022A000089509E0002510950698219D2D180C959C
:1022B00001350895002D18DD2B1C17E06342002521
:1022C0000C93089320951094122306E001256B428D
:1022D00010950C93089300251223219506E0012503
:1022E0000C9508952B1C219500E0012307980022EE
:1022F000456A6A600422101C14306968984203D849
:10230000013169605200F6E7079801F0A5F82860EE
:10231000079D6B6A089D1B680B930E2D00D987E102
:10232000002C00D184E1049C059D14941595069D14
:10233000002D61DD2A1C0F231A402D49D2008A1876
:10234000146855680E940F95069D2A4C2F1102258E
:10235000F80617D51F4014981599226A636A02F08F
:10236000A1FA0325049005910CE0F90708D50E9811
:102370000F992268636802F005FF0E900F910135F6
:102380007F100834002FF0D1049805990E9A0F9B06
:1023900002F088FA4EE0C046000000000000000095
:1023A000000000000000F83F61436F63A787D23F41
:1023B000B3C8608B288AC63FFB799F501344D33F34
:1023C0000000F07F0F270000CA620000C162000019
:1023D0009E6200000000F03F01FCFFFFEFFBFFFFEB
:1023E000120400000EFCFFFFEEFBFFFF000010FEDA
:1023F0003863000010640000069C02256742002F2D
:102400001AD00F233B40CC4ADB00D31814981599FF
:102410001A685B6802F0B6FEC84E3F11002F09D063
:10242000FA0704D532687368013502F0ABFE7F10FD
:102430000836F3E704900591139C002C1ED0049EEF
:10244000059FB44BB24A301C391C01F0DFFE002856
:1024500014D0089C002C11D00C9C002C00DCE3E074
:10246000069C301C013C391CAB4AAC4B119402F069
:1024700089FE0135049005910C9C02E0069C1194A4
:10248000089C281C049E059F0E9403F077FC321CC8
:102490003B1C02F077FEA24AA24B01F0DFFE041CB7
:1024A000A74808180E990490051C00291BD19E4AC4
:1024B0009E4B301C391C03F0F7F8221C049B061CB1
:1024C0000F1C01F0B7FE002800D05CE2221C802522
:1024D000049C2D06301C391C631901F097FE00285E
:1024E00000D047E2A0E00E9A934B013A1098D20038
:1024F0009B18002849D01A685B688D488D4902F006
:10250000D1F92B1C221C03F0CFF8049005910B9DF0
:10251000391C301C03F0FEFB041C03F02FFC021CD2
:102520000B1C301C391C03F0BFF801356B1E303416
:102530001C70049A059B061C0F1C01F067FE002806
:1025400000D053E3321C3B1C7249714803F0ACF8D5
:10255000049A059B01F05AFE002800D0CBE00B9CAA
:102560002B1B0E9CA3425FDA049805996A4A6B4BB9
:1025700002F008FE684A694B04900591301C391C32
:1025800002F000FE061C0F1CC2E718685968221CE6
:102590002B1C02F0F7FD0B9C0E9D04900591651914
:1025A0001795391C301C03F0B5FB051C03F0E6FB46
:1025B000021C0B1C301C391C03F076F830352570DA
:1025C000179D0134061C0F1CAC4226D10E980B9CA3
:1025D000574A584B25180498059901F03FFE021CF4
:1025E0000B1C301C391C01F025FE002800D082E0B5
:1025F000049A059B4E484F4903F056F8021C0B1CE9
:10260000301C391C01F002FE00280DD06B1E1A7818
:10261000302A00D0EAE21D1CF8E73F4A3F4B02F0A7
:10262000B1FD061C0F1CBCE7149C159D0494059578
:10263000199B002B00DA9FE0069D0E2D00DD9BE02C
:102640003D4AEB00D3181C685D6802940395219DF8
:10265000002D14DA089C002C11DC00D08CE1324AE9
:10266000324B0298039902F08DFD049A059B01F00C
:10267000EBFD089F3E1C002800D07FE187E10B9D09
:10268000049E059F029A039B301C391C02F00AF934
:1026900003F040FB041C03F071FB029A039B02F061
:1026A00071FD021C0B1C301C391C02F0FDFF0135B2
:1026B000021C201C30300B1C691E08700B98291A54
:1026C0000898814248D1101C191C01F0C7FD029ADC
:1026D000039B061C0F1C01F0ADFD00280DD1301C22
:1026E000391C029A039B01F08BFD002800D17FE288
:1026F000E10702D47CE2119C06946B1E1A78392AF9
:1027000026D10B9CA3421DD01D1CF6E7C046C04637
:10271000000000000000F03F000000000000244026
:102720000000000000001C400000000000001440F9
:10273000000000000000E03F38630000106400006B
:102740000000C0FC069C3022013406940B9C2270D1
:102750001A7801321A704BE2101C191CC94BC84A76
:1027600002F010FDC84AC94B061C0F1C01F048FDC1
:10277000002800D186E73BE2109D002D31D0209C3F
:10278000012C0BDC169D002D02D0C1481B1802E065
:10279000189936235B1A0D9D029C16E0089D0D9C2E
:1027A000013DAC4201DB651B06E00D9C0D952B1B2A
:1027B000129C0025E4181294089C002C03DA02985D
:1027C0000023041B01E0029C089B0299099AC91886
:1027D0000291D21807980121099200F055FF061CBA
:1027E00002E00D9D029C109E002C0CD0099B002B3A
:1027F00009DDA34200DD231C02980999C01AC91AF9
:102800000290E41A09910D9A002A21DD109B002BF9
:1028100018D0002D10DD311C2A1C079800F0CCFFC9
:10282000061C311C0A9A079800F037FF0A99071C0A
:10283000079800F049FE0A970D98421B08D00798A8
:102840000A9902E007980A990D9A00F0B5FF0A90DC
:102850000798012100F018FF129D071C002D05DDCF
:10286000391C07982A1C00F0A7FF071C2098002598
:10287000012810DC0499A9420DD1059A1303AB423B
:1028800009D1844B134206D0029D01350295099D62
:1028900001350995012512990120002908D03B69CD
:1028A00003339B00FB18586800F0A5FE2023181A7C
:1028B000099A1F23801818400DD020231B1A042BBF
:1028C00006DD1C23181A029B24181B18029308E02B
:1028D000042B08D0181C02991C300918099A02917F
:1028E000241812180992029B002B05DD07980A99FB
:1028F0001A1C00F0B3FF0A900998002805DD391C66
:102900000798099A00F0AAFF071C139900291BD009
:102910000A98391C00F0F4FF002815DA069A002303
:10292000013A069207980A990A2200F0E6FD0C9BEC
:102930000A9010980893002806D0311C07980A22A4
:10294000002300F0DAFD061C089900292ADC209AF1
:10295000022A27DD002911D1391C07980522089B7E
:1029600000F0CBFD071C391C0A9800F0C9FF0028B5
:102970000DDC03E00E9F00E000273E1C219C0B9D18
:10298000E44306940BE0119D0E9F06953E1C0B9CA4
:1029900031232370069C0B9D013401350694029669
:1029A00000260FE11098002800D1C5E0002C05DDBD
:1029B000311C0798221C00F051FF061C0296002DC6
:1029C00012D07168079800F047FD3269311C02325D
:1029D000041C92000C310C30FEF750FB0798211CB0
:1029E000012200F03BFF02900B9C089D231C013B41
:1029F0005B1909941093391C0A98FFF7A9FA311C46
:102A00000D90041C0A9800F07BFF391C0C90029A70
:102A1000079800F090FF051CC0683034002805D1ED
:102A20000A98291C00F06CFF089001E00121089130
:102A3000291C079800F048FD089B209D2B430DD1D1
:102A400004980123034209D1392C44D00C9D002D58
:102A500001DD0D9C3134099D013544E00C9D002DB4
:102A600003DA089D002D17DC28E00C9B209D2B43EA
:102A700029D104980123034225D1F2E7C046C0467C
:102A800000000000000024400000000000000000E2
:102A9000330400000000F07F0A990798012200F03B
:102AA000DDFE391C0A9000F02BFF002802DC05D166
:102AB000E10703D5392C0ED00D9C3134099D099ABC
:102AC000013514707EE0099D01350C95089D002D9F
:102AD0000CDD392C05D1099D099C39230135237062
:102AE0005BE00C9D0134099804706BE00999109A21
:102AF0000C9D0C7091423DD00A990A220023079840
:102B000000F0FBFC029C0A90311C07980A2200236B
:102B1000A64204D100F0F1FC061C029009E000F08E
:102B2000ECFC0299061C0A220798002300F0E5FC41
:102B300002900C9D09955EE70B9D391C0A98FFF7E2
:102B400007FA041C30340B9808992C7001352B1AA5
:102B50008B4207DB0B1E00DC01230B9A0296D51873
:102B6000002607E007980A990A22002300F0C5FC16
:102B70000A90E2E70A990798012200F06FFE391CDB
:102B80000A9000F0BDFE002807DC15D1E30704D44D
:102B900012E00B9CA34205D01D1C6B1E1A78392A2B
:102BA000F7D006E0069C3123013406940B9C237079
:102BB00008E001321A7005E06B1E1A78302A01D144
:102BC0001D1CF9E70798391C00F07EFC029C002CC4
:102BD0000ED0002E05D0A64203D00798311C00F07D
:102BE00073FC0798029900F06FFC01E0119C0694B9
:102BF00007980A9900F068FC00232B70069B229C22
:102C000001332360249C002C03D0256001E002489E
:102C100000E00B981BB0F0BD9D620000C046C046AE
:102C2000F7B58B89051C0C1C19075ED46268002A55
:102C300002DC276C002F1ADDE76A002F17D0002274
:102C40002E682A60802252011A4001D0626D15E080
:102C5000281C216A0123B847021C411C0ED12B6895
:102C6000002B0BD01D2B01D0162B02D12E60002083
:102C70005EE0A38940210B43A38159E0A3895F074C
:102C800006D56168636B521A002B01D0276CD21BEA
:102C9000281C216A0023E76AB847A289411C06D193
:102CA0002B68002B03D01D2B01D0162B19D100232C
:102CB000636023692360D70405D5411C02D12A68CB
:102CC000002A00D16065616B2E600029CFD0231CE3
:102CD0004433994202D0281C00F0ECFF00206063CE
:102CE00026E040231A43A28122E02669002EBED0AE
:102CF00027680022BF1B01972660990700D16269EF
:102D0000A260019F002FB2DD281C216A321C019BAA
:102D1000A76AB847002806DCA38940221343012094
:102D2000A381404204E0019F36183F1A0197E8E76B
:102D3000FEBD00000A6938B5051C0C1C002A01D133
:102D400000201CE0002804D08369002B01D100F092
:102D500091F80B4B9C4201D16C6808E0094B9C42F6
:102D600001D1AC6803E0084B9C4200D1EC680C2216
:102D7000A35E002BE4D0281C211CFFF751FF38BDB7
:102D8000D0620000F06200001063000008B5011E70
:102D900005D1054B0549186800F06EFA03E0044BB5
:102DA0001868FFF7C7FF08BD78620000352D0000E6
:102DB000680000200020704700207047F8B5041C10
:102DC000071C4834002C12D0A5686668013E0CD45C
:102DD000AB89012B07D90E22AB5E013303D0381C1F
:102DE000291CFFF7A7FF6835F0E72468EAE7F8BD7C
:102DF000002310B5041C0360436083608181436637
:102E0000C281036143618361191C08225C30FEF7B3
:102E10003EF9054B24626362044BA362044BE362F8
:102E2000044B236310BDC046413F00006D3F0000CE
:102E3000A53F0000D13F000070B54B1E68255D43E3
:102E40000E1C291C743100F07DFF041E08D00021E7
:102E5000016046602A1C0C30A0606832FEF717F94A
:102E6000201C70BD08B5024B1868FFF7A7FF08BD0E
:102E700078620000836913B5041C002B27D183649A
:102E8000C3640365124B134A1B688262984201D1E6
:102E900001238361201C00F01FF86060201C00F0FB
:102EA0001BF8A060201C00F017F80421E06000224D
:102EB0006068FFF79DFFA06809210122FFF798FFD6
:102EC000E06812210222FFF793FF0123A36113BDE3
:102ED00078620000BD2D0000F8B51D4B071C1E6870
:102EE000B269002A02D1301CFFF7C4FF4836B4682B
:102EF0007368013B05D40C22A55E002D10D0683408
:102F0000F7E73368002B06D1381C0421FFF794FF44
:102F10003060002801D03668E9E70C233B6016E0FA
:102F200001235B42E381201C0123A38165662560A8
:102F3000A560656025616561A5615C30291C08227A
:102F4000FEF7A5F86563A563A564E564201CF8BDDC
:102F500078620000704770477047704708B5034BB0
:102F60000349186800F06CF908BDC04668000020ED
:102F7000B52D000008B5034B0349186800F060F94F
:102F800008BDC04668000020B92D0000F0B50C1C3B
:102F900091688BB007900992002901D1002046E189
:102FA000A3891A070CD52369002B09D0099DA38991
:102FB0002D68022706951F4026D00026351C1BE0F1
:102FC0000798211CFEF752FF0028EFD02DE1994A07
:102FD000216A2B1E934200D9131C0798321CA76A42
:102FE000B847002800DC1CE10999099F8968361858
:102FF0002D1A081AB860D1D0002DE8D1069F3E687E
:103000007D6808370697F7E70122134003D0089739
:1030100005973E1CCBE005931D1C002D07D1069D96
:10302000069E2D680595756808360696F5E7A3890E
:10303000A66820689F0554D5B54244D39022D2009B
:1030400013423ED06269032757432169FA0F401AA1
:10305000D719021C0132521904907F10974200D2F6
:10306000171C07985E0513D5391C00F06BFE061E71
:1030700003D1079F0C233B60D3E0049A2169FDF73D
:10308000FDFFA2896C4B134080221343A38110E003
:103090003A1C00F0ABFE061E0BD10798216900F028
:1030A00009FEA38980229343079DA3810C232B60F3
:1030B000B7E004992661676176187F1A2660A760D9
:1030C0002E1CB54200D22E1C321C2068059900F03F
:1030D000AAF9A268931BA36023689E1926602E1C80
:1030E0002EE02769B84202D86769BD4217D22B1E6D
:1030F000B34200D9331C1A1C05991E1C00F093F929
:10310000A16827688B1BBA19A3602260002B17D116
:103110000798211CFFF70EFE002811D081E0474BD5
:10312000281E984200D9181C391CFDF709FF3B1CCA
:103130004343A66A0798216A059AB047061E70DDC8
:10314000059F0999BF1989680597099FAD1B8E1BBB
:10315000BE6000D061E721E7089D002D33D00497C1
:10316000B74200D9049620682169A568636988423E
:1031700038D9049AED18AA4234DD05992A1C00F0CA
:1031800052F9216807984B192360211CFFF7D2FDE3
:10319000002846D17F1B3CD0099B059A9B68099962
:1031A0005219761B5D1B05928D6000D1F6E6002E4C
:1031B000D2D1069D2D680595069D6E680835069549
:1031C00000250895F3E705980A21321C00F020F944
:1031D000002803D0059D471C7F1B00E0771C0125BC
:1031E0000895BCE7049D9D4207DBA56A0798216A04
:1031F000059AA847051ECDDC13E00599049A00F056
:1032000012F9A168049D4B1B2168A3604B19236030
:10321000C0E70798211CFFF78DFD002801D1089712
:10322000BAE7A38940221343A381012040420BB097
:10323000F0BDC04600FCFF7F7FFBFFFFFFFFFF7F6D
:10324000F7B5041C019148340026002C12D0A56863
:103250006768013F0CD4AB89012B07D90E22AB5E06
:10326000013303D0281C019B984706436835F0E7DB
:103270002468EAE7301CFEBDF7B5041C071C019169
:1032800048340026002C16D06268A5680092009A87
:10329000013A00920DD4AB89012B08D90E22AB5E06
:1032A000013304D0381C291C019B9847064368351C
:1032B000EDE72468E6E7301CFEBD000038B5141CBD
:1032C0000C4D01D1281C13E0101C0B49FDF7A6FF83
:1032D0000028F7D0201C291CFDF7A0FF0028F1D002
:1032E000201C0649FDF79AFF4342584140422840BE
:1032F00038BDC04674620000306300008162000087
:1033000000487047C4000020014B18687047C04651
:10331000E4000020004870476C0000200020704747
:10332000004870478C00002008B50A1C0349031CA4
:103330000868191CFFF7C2FF08BDC04668000020DE
:10334000004870478C000020F0B58B8991B0051CB7
:103350000C1C9A0725D40E23C95E002906DAA7891A
:1033600080231F400FD0002740260EE001AA00F066
:1033700063FE0028F3DB029BF0273F02184A1F4040
:10338000BF187B425F418026F600281C311C00F0EC
:10339000D9FC00280CD1A3899A051FD4022213431B
:1033A000A381231C4733236023610123636115E05C
:1033B0000C4B8022AB62A38920601343A381206160
:1033C0006661002F0AD00E23E15E281C00F046FE45
:1033D000002803D0A38901221343A38111B0F0BDBB
:1033E00000E0FFFFBD2D000008B5034B011C18686D
:1033F00000F0A8FC08BDC0466800002008B5034BDB
:10340000011C186800F056FC08BDC046680000208A
:10341000C9B28218904204D003788B4202D00130A6
:10342000F8E70020704770B5814201D300230CE01B
:103430008C18A042FAD28518131C013B0BD35142C1
:103440006618F65C6918CE54F7E7934203D0CC5C5B
:10345000C4540133F9E770BD70B5456A041C0E1CF5
:10346000002D07D11020FFF7BFFF60624560856027
:103470000560C560656AEB68002B09D0636AB2001D
:10348000DB689A18106800280ED00368136017E0F4
:10349000201C0421212200F0FFFB636AE860DB6846
:1034A000002BEBD100200EE001210D1CB5406A1D60
:1034B0009200201C00F0F0FB0028F3D046608560ED
:1034C00000220261C26070BD70B5446A061C0D1C0A
:1034D000002C07D11020FFF787FF706244608460E2
:1034E0000460C460002D07D0726A6968D2688B00DE
:1034F000D3181A682A601D6070BDF7B50C1C1E1C1D
:103500000D69071C143100230868013380B2504351
:1035100080198446060C0868000C50433018060CCD
:1035200000040190604680B284460198844460465D
:1035300001C1AB42E8DB002E1BD0A3689D4212DB29
:103540006168381C0131FFF787FF2269211C0232B4
:1035500001900C3192000C30FDF790FD211C381CBD
:10356000FFF7B2FF019C2B1D9B00E31801355E6045
:103570002561201CFEBDF7B5061C181C0F1C083069
:1035800009210193141CFDF7DBFC01230021984263
:1035900002DD5B000131FAE7301CFFF75DFF089B9D
:1035A000011C436101230361092C12DD3B1C09331B
:1035B00000931D1C3F192B78301C303B0A22FFF76B
:1035C0009CFF0135011CBD42F5D1009B1F19083F2E
:1035D00001E00A370924251C019B9D4209DA3B1BA7
:1035E0005B5D301C303B0A22FFF787FF0135011C71
:1035F000F2E7081CFEBD0022031C010C914201D120
:1036000003041022190E01D108321B02190F01D137
:1036100004321B01990F01D102329B00002B04DB05
:103620002020590002D5501C00E0101C7047036890
:103630000722011C1A400BD001220020134222D184
:103640000220034201D0D3401BE09B080B601AE02C
:1036500098B2002801D11B0C1022D8B2002801D149
:1036600008321B0A180701D104321B09980701D13F
:1036700002329B08D80704D45B082020002B02D01C
:1036800001320B60101C704710B50C1C0121FFF7B4
:10369000E3FE01234461036110BDF0B50C1C151C51
:1036A000096912698BB0914202DA231C2C1C1D1C83
:1036B00027692E69A268BB1961680293934200DDF5
:1036C0000131FFF7C9FE031C0390029814338200F6
:1036D0009A18191C914202D2002001C1FAE7143550
:1036E0001434BF00AC46B600E7196644049407974B
:1036F0000996099EB44556D265462D880595002D3C
:103700001FD0049C191C00200F6840CCBFB2059D3F
:103710000697B7B26F43069D360CEF193F1808683D
:103720000891050C05984643380CAD192D18280C46
:10373000BFB22D043D4320C1079DAC42E4D3089E97
:10374000706067467D88002D22D000261868049C92
:10375000191C0196278880B26F430697069E4F88F2
:103760000591F619019FF71906973F043843086041
:1037700001CC8F88000C6843C019069F04313E0CB1
:103780008019079F060C0196A742E3D80599486067
:103790000425AC445B19ACE7043A1068002805D155
:1037A000029F013F0297029D002DF5DC039F029EC0
:1037B000381C3E610BB0F0BD0323F7B51340051C68
:1037C0000E1C141C002B07D0224A013B9B009A5868
:1037D0000023FFF792FE061CA410019437D06C6AF8
:1037E000002C07D11020FFF7FFFD68624460846061
:1037F0000460C4606F6ABC68002C10D1281C164994
:10380000FFF742FF0023B860041C036007E0019B40
:103810005B1001931BD0206800280FD0041C019B73
:10382000DB07F4D5311C221C281CFFF736FF311CA6
:10383000071C281CFFF748FE3E1CE8E7281C211C3B
:10384000221CFFF72AFF002320600360E6E7301CFC
:10385000FEBDC0460064000071020000F0B50C1C03
:1038600085B00390206955112818029049680130ED
:10387000A368171C0090009A9A4202DD01315B0098
:10388000F9E70398FFF7E8FD021C061C1432002339
:10389000AB4204DA9900002050500133F8E7EB43C3
:1038A000DB171D40AD0020695519221C143283001E
:1038B0009B189C461F231F4014D02023DB1B019321
:1038C00000231068291CB840034308C508CA0198A2
:1038D000C3409445F5D84B60002B07D002990231C4
:1038E000009103E008CA08C59445FBD8009B0398E3
:1038F000013B3361211CFFF7E7FD301C05B0F0BD33
:1039000010B502690C69031C101B13D11A1CA0000E
:103910001432143113180918043B04391C68086860
:10392000844204D0844280410123184302E0934240
:10393000F2D8002010BDF0B5071C85B0081C0D1C86
:10394000111C141CFFF7DCFF061E07D1381C311CAC
:10395000FFF782FD01230361466150E0002801DB8F
:10396000002603E02B1C0126251C1C1C6968381C42
:10397000FFF772FD2A692B1C14339100591802912C
:103980002169251C143589006918041C0391C6603F
:103990001434002140CB80CDB446B6B27118BEB20B
:1039A0008E1B614601963F0C0E0CF71B019E0434E2
:1039B00031147F1839143F040097019F261FB44625
:1039C000BEB2009F374366463760039FBD42E1D3D6
:1039D000029E251CB3420BD280CBBDB26D182E14B3
:1039E0003F0CF6193114ADB23604354320C4EFE76D
:1039F000043D2F68002F01D1013AF9E7026105B0BB
:103A0000F0BD00000E4B0F4A0B409B1810B5002B69
:103A100001DD191C09E05B421B1500200021132B5E
:103A200005DC80221203111C1941002006E001224E
:103A3000322B02DC3324E31A9A40101C10BDC0461E
:103A40000000F07F0000C0FC0369F7B5061C1436C7
:103A50009B00F3181C1C043C25680F1C281C0193B8
:103A6000FFF7C9FD20231B1A3B601F490A2813DCFE
:103A70000B231B1A2F1CDF409C460B1C3B430021D1
:103A8000B44202D90199083909686446E140153009
:103A900085400A1C2A4322E00027B44202D9019C37
:103AA000083C27680B235B421B189C46002B13D055
:103AB0002B23181A63469D4029433D1C0B1CC5400F
:103AC0002B430021B44201D9043C2168C140644623
:103AD000A7400A1C3A4302E00B1C2B433A1C101C63
:103AE000191C03B0F0BDC0460000F03FF7B501213E
:103AF0001D1C141CFFF7B0FC6F002B03061C1B0BD6
:103B00007F0D02D08022520313430193002C19D061
:103B100068460094FFF78BFD009A002809D0019BAE
:103B200020211C1C091A8C402243C340726101935E
:103B300000E07261019CB461634263410224E41AB3
:103B4000346107E001A8FFF772FD0199012471615A
:103B500034612030002F09D00D4A089CBF183F184F
:103B600027603523099C181A20600EE00949089A3D
:103B700040180949106063189B00F3185869FFF753
:103B80003AFD6401099A241A1460301CFEBDC04637
:103B9000CDFBFFFFCEFBFFFFFFFFFF3FF7B50E1C86
:103BA0006946071CFFF750FF041C0D1C301C01A9BF
:103BB000FFF74AFF021C0B1C009801993F69401A4D
:103BC00031698446791A49016144002902DD0905F9
:103BD0004D1901E009055B1A201C291C00F062FE4A
:103BE00003B0F0BD0000000010B5041E172C05DC6A
:103BF0000B4BC4001C192068616808E005490448A3
:103C0000054A064B013C01F0BDFA002CF8D110BD6D
:103C1000000000000000F03F000000000000244011
:103C200038630000C046C046013910B5131C491165
:103C30001269013189001433920041189A18934295
:103C400002D210CB10C0FAE7884202D2002308C08B
:103C5000FAE710BD021C006910B514324B11834203
:103C60000DDC0DDA1F2001400AD098008458201C7A
:103C7000C8408840011C0120A1420CD100E0031C77
:103C80009B00D318934205D9043B19680029F9D049
:103C9000012000E0002010BD38B5151C4D43291C43
:103CA00000F050F8041E03D000212A1CFDF7EFF9A4
:103CB000201C38BD30B5002940D004390B68002BDA
:103CC00000DAC9181E4A1368141C002B02D14B607D
:103CD000116033E099420FD208680A189A4205D160
:103CE00013685268C01808604A6000E04B602160A9
:103CF00024E08A4203D8131C5A68002AF9D11D68AF
:103D00005C198C420BD109686918581819609042E7
:103D100014D114685268091919605A600EE08C4277
:103D200002D90C23036009E008680C18944203D1FF
:103D300014685268001908604A60596030BDC04676
:103D40001805002070B50323CD1C9D430835061CC3
:103D50000C2D01D20C2501E0002D3FDB8D423DD31F
:103D6000204B1C681A1C211C002913D00868431B17
:103D70000DD40B2B02D90B60CC181EE08C4202D163
:103D8000636813601AE0486860600C1C16E00C1C45
:103D90004968E9E7144C2068002803D1301C00F082
:103DA000BDF82060301C291C00F0B8F8431C15D069
:103DB000C41C03239C4384420AD12560201C0B3081
:103DC0000722231D9043C31A0BD05A42E25008E049
:103DD000211A301C00F0A2F80130EED10C23336020
:103DE000002070BD1805002014050020F8B5061C41
:103DF0000C1C151C002904D1111CFFF7A3FF041C87
:103E000018E0002A03D1FFF755FF2C1C12E000F048
:103E10004BF9A8420ED2301C291CFFF793FF071E56
:103E200007D0211C2A1CFDF729F9301C211CFFF7A3
:103E300041FF3C1C201CF8BD70B5051C0E1C141C59
:103E4000002804D08269002A01D1FFF713F8154B2E
:103E50009C4201D16C6808E0134B9C4201D1AC68D4
:103E600003E0124B9C4200D1EC68A368013BA360C5
:103E7000002B10DAA269934207DB23681E702368C7
:103E800019780A290AD1281C01E0281C311C221C9F
:103E9000FDF788FF05E02268167023685A1C22602F
:103EA000187870BDD0620000F0620000106300005E
:103EB00008B50A1C0349031C0868191CFFF7BCFF5E
:103EC00008BDC0466800002030B50B1C041C021C55
:103ED0001C430220002C17D080242406A34201D1C9
:103EE000002A11D0094859004908094C0D1804202E
:103EF000A54209D9074C0320A14205D9064C002050
:103F0000A14201D15042504130BDC0460000F0FFF7
:103F1000FFFFDF7FFFFF0F000000F07F38B5074C89
:103F20000023051C081C236001F0E0FF431C03D1A3
:103F30002368002B00D02B6038BDC046C40500208C
:103F400038B50C1C0E25495F00F0B8F8002803DBDB
:103F5000626D1318636503E0A289024B1340A381CD
:103F600038BDC046FFEFFFFF00207047F8B51E1CAC
:103F70008B89051C0C1C171CDA0505D50E23C95EA0
:103F80000022022300F07CF8A289054B281C134074
:103F9000A3810E22A15E331C3A1C00F027F8F8BD65
:103FA000FFEFFFFF38B50C1C0E25495F00F068F8E5
:103FB000A389421C03D1054A1340A38104E0802257
:103FC00052011343A381606538BDC046FFEFFFFF78
:103FD00008B50E23C95E00F01DF808BD0023C25CC1
:103FE0000133002AFBD1581E7047000038B5084C39
:103FF000051C00202060081C111C1A1CFCF760FE28
:10400000431C03D12368002B00D02B6038BDC04671
:10401000C405002038B5074C0023051C081C23608C
:1040200001F03CFF431C03D12368002B00D02B6020
:1040300038BDC046C405002038B5074C0023051C18
:10404000081C111C236001F031FF431C03D12368BD
:10405000002B00D02B6038BDC405002038B5074CBC
:104060000023051C081C236001F028FF431C03D11A
:104070002368002B00D02B6038BDC046C40500204B
:1040800038B5084C051C00202060081C111C1A1CA7
:1040900001F01CFF431C03D12368002B00D02B60D0
:1040A00038BDC046C405002004390B68181F002B1A
:1040B00002DAC8581B18181F7047000038B5084CA2
:1040C000051C00202060081C111C1A1C01F006FFB2
:1040D000431C03D12368002B00D02B6038BDC046A1
:1040E000C405002038B50C1C0968051C002901D046
:1040F000FFF7F8FF281C211CFFF7DCFD38BD00008E
:10410000314B70B51B68041E9C425CD0436A002B87
:104110001DD0DB680025AB4212D0636ADB685959B9
:10412000002905D00E68201CFFF7C4FD311CF7E7FD
:104130000435802DF1D1636A201CD968FFF7BAFDE0
:10414000636A1968002902D0201CFFF7B3FD61697A
:10415000002902D0201CFFF7ADFD616A002902D0C2
:10416000201CFFF7A7FDA16B002902D0201CFFF740
:10417000A1FDE16B002902D0201CFFF79BFD216C03
:10418000002902D0201CFFF795FDE16D002902D027
:10419000201CFFF78FFDA16D002902D0201CFFF726
:1041A00089FD616B002902D0201CFFF783FDA36904
:1041B000002B08D0201CA36A9847A16C002902D0CC
:1041C000201CFFF78FFF70BD6800002002B471460D
:1041D00049084900095C49008E4402BC7047C0464A
:1041E0008446101C62468C46191C634600E0C0469B
:1041F0001FB500F043FF002801D40021C8421FBDB5
:1042000010B500F077FE4042013010BD10B500F04F
:1042100035FF002801DB002010BD012010BDC04685
:1042200010B500F02BFF002801DD002010BD01209B
:1042300010BDC04610B500F0A7FE002801DC00202C
:1042400010BD012010BDC04610B500F09DFE002835
:1042500001DA002010BD012010BDC046F8B55F4650
:10426000564644464D46F0B40C034D00CE0F610A4D
:10427000440F2143C400180380465800400D824675
:10428000D80F84464046400A530F0343D0006D0DBB
:10429000371C83465246664500D1A4E0AF1A002F72
:1042A00000DC09E1002A3BD1184300D0EAE06307B3
:1042B00000D187E00F232340042B00D182E0221D90
:1042C000A242A4416442802309191B040B40371CFD
:1042D000141C002B00D17CE0CE4B01359D4200D157
:1042E00005E1CD4BE40819404807490204430B0B94
:1042F000002000211B031A0B0B0D6D051B0513433A
:104300006A08C64DFF071D4015436D006D08291C46
:104310003943201C3CBC90469946A246AB46F8BDAA
:10432000BC488542C3D0802000040343382F00DD01
:10433000F0E01F2F00DD24E12020C01B1A1C814665
:1043400082405846F8400243944658464A469040B8
:10435000421E9041FB40624602431F1CA21A944237
:10436000A4416442C91B091B141C0B029FD54902BE
:104370004F0A002F00D1C8E0381C01F071FD021C6B
:10438000083A1F2A00DDB5E02821091A201C9740B1
:10439000C84007439440954200DDB2E0551B691CBC
:1043A0001F2900DDDCE01F22551B3B1C221CAB40FB
:1043B000CA40AC40651EAC411343CF401C43391C7E
:1043C000002574E780231B040B40371C002B00D012
:1043D00082E7904B4807E4080443C9089D4248D04F
:1043E00009030B0B84E7AA1A9446002A00DC98E024
:1043F0005046002852D08748854200D157E7802098
:10440000000403436246382A00DDFCE01F2A00DD79
:104410004AE120226046101A1A1C824082469146C8
:1044200058466246D0404A46024390465846524655
:104430009040421E9041424602436046C3401219DA
:10444000A242A441644259180919141C080200D45C
:104450002DE7704B01359D4200D122E16E4B600883
:104460001940012323401C1C0443CB071C4349086B
:104470001DE7231C0B433AD080231B030B431B0374
:104480001B0B35E7013F002F65D15846221A944295
:10449000A4416442C91A091B141C66E75846184314
:1044A00000D104E70122524294446046002800D023
:1044B000C5E058460219C3E7002F73D1681C4005B8
:1044C000400D012800DCDEE05A46A21A9442BF41AA
:1044D000C81A7F42C71B380200D489E05A46141B11
:1044E000A3459241591A52428F1A664641E700236A
:1044F0000024FDE6271C283887400024954200DC74
:104500004CE74549AD1A3940D1E6201C01F0A8FC22
:10451000203034E75A461A43531E9A41D2B200273C
:104520001CE7002A00D0DCE0681C4205520D012A7D
:1045300000DC8DE0374DA84200D1F3E05D462A193A
:10454000A242A441644259180919CC0752081443E5
:104550004908051CABE62F48854200D0E6E6A6E6F2
:104560002B1C1F3B3A1CDA40131C20296CD03F2225
:10457000551BAF403C43601E84411C430021002575
:1045800095E6381C20381A1CC240101C202F5DD024
:104590004022D71BBB405A461A43531E9A4102433E
:1045A0000027DBE6002D3BD01A4DAA4500D193E051
:1045B00080252D047F422943382F00DDACE01F2FDA
:1045C00000DD29E12025ED1B081C261CA840FE402B
:1045D000AC400643651EAC413443F9405D462C1B9C
:1045E000A34592415B1A5242991A55466646BCE66B
:1045F000131C3B43141C002B00D0BAE600270021FB
:1046000000240025E5E65A461A43531E9A41D2B2C9
:10461000002314E7FF070000FFFF7FFFFFFF0F806D
:104620000D1C254358D0FF43002F51D1041BA34537
:104630009241591A5242891A5546664695E696485D
:10464000854200D0DEE632E6002793E70023A2E7AA
:10465000081C2043002D00D0C4E0002800D1F7E062
:104660005846184300D122E658460219A242A441F6
:10467000644259180919141C0A0200D417E6874B22
:104680000125194013E6081C2043002D39D10028CC
:1046900071D15946194303D0191C5C46664606E69B
:1046A00000270021002494E6604620381A1CC240EE
:1046B00060469146202800D1ACE04022121A934077
:1046C0005A461A43531E9A414B461A430023B6E6F4
:1046D000714DAA4500D06FE7191C5C4655466646E9
:1046E000E5E5002D22D10D1C254377D0D543002DC3
:1046F00071D15C445C459241591852428918554623
:10470000A4E600284DD15946194300D194E0191C64
:104710005C466646604DCAE50C43611E8C41E4B2BE
:1047200000215BE7051C0021002452E65A4DAA45F2
:1047300054D05542802210040143382D00DD81E021
:104740001F2D00DD92E02022501B0A1C844682406F
:10475000201CE8400243904662469440601E84411B
:1047600042461443E9405C445C459241CB185242B6
:10477000991855466AE65846184300D197E55846B9
:10478000271ABC429241C81A5242801A020266D5C8
:104790005846041BA3459241591A5242891A66464B
:1047A00085E55846184333D04807E4080443802081
:1047B000C9080003014208D0DD08054205D1594669
:1047C000CA085C071443291C6646630FC9001943D5
:1047D000E400314D6BE5304A9245AED1191C5C4680
:1047E000554664E5002836D05846184310D0802539
:1047F0004807E408C9082D0304432942E5D0D80836
:104800002842E2D15D46EA085C071443011CDCE75C
:10481000214D4CE5002353E73D1C203D0A1CEA4096
:10482000151C202F34D04026F71BB9400C43611EC5
:104830008C412C430021D1E608240027184964420A
:10484000154DC6E50C43611E8C41E4B200218AE798
:10485000191C5C462BE5191C5C460F4D27E5031C13
:104860003B4300D11CE7011C3C1C20E520204042BA
:1048700040190A1CC2409046202D0BD04020451BF9
:10488000A9400C43611E8C4145462C4300216AE738
:104890000021CBE70021F4E7FF070000FFFF7FFFC7
:1048A000FFFF7F00F0B5564644465F464D46F0B4E4
:1048B0001F1C0B031B0B98464B0087B0041C814642
:1048C0005B0DC80F161C9A460090002B51D06B4B05
:1048D0009A4531D08022414652030A43630FD200E9
:1048E0001A43674B90460025E20091469A44002403
:1048F00002953B031B0B9B46FD0F7B00311C5B0DA0
:10490000019560D05D4A934254D0802158464903B6
:104910000143720FC9001143594A8B469B18F1009D
:104920000020009A04436A4003920F2C00D9B1E0A2
:10493000544EA4003459A746404604436ED100218A
:1049400002250824884689460295D2E7009C0298F1
:10495000C34649460194022864D0032800D1AFE23F
:10496000012800D03CE2019A002402400025A14623
:1049700060E0434623434AD04046002800D1C4E1CA
:1049800001F06EFA031E272B00DDB7E128210D1A76
:10499000211C083B4246E9409A400D1C1543221C4D
:1049A0009A40A8469146384B00251B1A9A46002487
:1049B00002959EE75A4616430320002EB1D1B34616
:1049C00000210220ADE75A4632431BD05B46002B44
:1049D00000D18EE1584601F043FA272800DD81E13D
:1049E0002822171A011C321C08395B46FA408B40FA
:1049F000171C1F43331C8B40BB46191C224B1B1A30
:104A000000208EE70027BB460021012089E7002017
:104A1000012504248046814602956AE703250C247B
:104A2000029566E7019C0394039D01222A4000241D
:104A3000124DA146002000212403260B0C0D240555
:104A4000124B34432D0523402B435B005B08D207F8
:104A5000191C4846114307B03CBC90469946A246F3
:104A6000AB46F0BD01235B420022094C9946034D41
:104A7000E0E700240025A146DCE7C046FF07000070
:104A800001FCFFFF606400000DFCFFFFFFFF0F80D3
:104A9000FFFF0F005546ED1A0495D84500D953E1A4
:104AA00000D14EE1049C0025013C4E46049447464B
:104AB000A946584603020C0E1C430902250C230488
:104AC0001B0C0091381C291C0193FCF7EBF9019990
:104AD00083464143381C8A46291CFCF727FA330CCD
:104AE000090419438A450CD95B460919013B8C42DC
:104AF00000D947E18A4500D844E10222524293445A
:104B000009195346CB1A181C291C9846FCF7CAF9F8
:104B1000071C0198291C784382464046FCF706FA98
:104B200036040B04360C33439A4509D91B197A1EF7
:104B30009C4200D924E19A4500D821E1023F1B198B
:104B40005E4632041743380CBB46009E009F514618
:104B50003F0C32045B1A5946BA46120C0F043F0C44
:104B6000904651467A434F4341464143564670432F
:104B7000CF19160CBE19B14202D980277F02C01985
:104B8000310C12043604120C4018B618834200D2BD
:104B9000C4E000D1BEE0191A4846861BB145BF41AA
:104BA0007F42CF1BA74200D113E1291C381CFCF720
:104BB00079F9019902904143381C8946291CFCF778
:104BC000B5F9330C0904194389450CD9029B09191D
:104BD000013B8C4200D9FFE0894500D8FCE0029FF0
:104BE0000919023F02974F46CF1B381C291C059715
:104BF000FCF758F9071C0198291C78438146059851
:104C0000FCF794F936040904360C0E43B14509D972
:104C100036197B1EB44200D9E0E0B14500D8DDE092
:104C2000023F3619029D4946761A290439430B047E
:104C300057460A0C1B0C40464546584355437B4398
:104C40007A43EB18070CDB199D4202D980256D02CF
:104C500052191D0C00041B04000C52191B1896421B
:104C600035D300D1FCE001231943049E994FF51977
:104C7000002D00DCA1E0480709D00F230B40042BD6
:104C800005D00B1D8B42894149428B44191C5A4661
:104C9000D20107D5904B5C46049E80271C40FF0044
:104CA000A346F5198D4B9D427ADD039C01222240DB
:104CB00000248B4DA146BDE68024240347462742AD
:104CC0004CD13C432403240B009A854DB2E636199F
:104CD000481EB4425ED9011C9642C4D1009E9E4239
:104CE000C1D1C2E7031C283B311C99408B460021EF
:104CF00084E6301C01F0B4F820306EE6283B211C1D
:104D000099400022884691464DE6201C01F0A8F803
:104D1000203037E60021B14500D33DE7009F5A46D9
:104D2000B944B945BF417F423F19FB18013A9C4243
:104D30001ED2984200D97EE000D1B5E0191A934600
:104D40002AE7894500D8ADE64846464642467708F8
:104D5000D3074608C0071E438146AAE658462042AC
:104D600012D1044324032A1C240B89465C4D61E6BE
:104D7000A342E3D1009F4F45DBD9211A93460BE7AD
:104D8000171CDDE69B46BCE63C432403240B009A3B
:104D9000534D4FE6B24259D800D18AE0011C62E778
:104DA0005F46C9087B07039E0B437C026D05012209
:104DB0009946240B6D0D32403CE64A4B049FDB1BA9
:104DC000382B10DD039C0122224000240025A1463F
:104DD00030E60121494248E7029304E71F1C21E71E
:104DE000019C039441E71F2B40DC3F48049F0C1CAF
:104DF0003A1858469140DC40904020430A1C511E0E
:104E00008A41011C11435A46DA40131C480709D055
:104E10000F220A40042A05D00A1D8A4289414942CC
:104E20005B18111C1A0234D5039C01222240002475
:104E30000125A146FEE5009F02214942B9448B4469
:104E4000B945894149420919CB18A4E6009D881E3D
:104E50006900A942AD416D422C19361900913AE71B
:104E6000002B00D033E70024009437E71F4A049C4E
:104E70005D46121BD5402A1C202B1FD01C4E5F46BE
:104E8000A3199F403B1C19434B1E9941114300231A
:104E9000BCE75A07C9080A43039F91465B020122F7
:104EA0001C0B3A400025C5E54E45C4D89346002169
:104EB00072E6009F9F42C9D3011C0FE70023E2E77F
:104EC000802424035F463C432403240B019A894633
:104ED000034DAFE5FF030000FFFFFFFEFE070000EC
:104EE000FF07000002FCFFFF1E040000E2FBFFFFC3
:104EF0003E040000F0B55F4656464D464446F0B4C9
:104F00000D1C041C8046E80F814618030F03000B9C
:104F10003F0B83B084461B48009749005E00DF0FBB
:104F2000490D9246760DBB4681420CD0154886420B
:104F300010D00120B14215D003B03CBC9046994638
:104F4000A246AB46F0BD009F01202743F4D10D4897
:104F50008642EED1604602430120002AECD10120B6
:104F6000B142E9D1009B6345E6D1D045E4D1D945B2
:104F700006D00029E0D11C43201C441EA041DBE7E1
:104F80000020D9E7FF070000F0B55F4656464D46C2
:104F90004446F0B4CD0FDE0FAC461D032D0BB146D9
:104FA000354E0F034C00AB465D0080463F0B640D51
:104FB00092466D0DB44231D02F4EB54234D0002C04
:104FC0000ED1384341424141081C002D0BD000292D
:104FD00019D1CC452CD06646002E17D1012017E000
:104FE000002DF6D1281C59460A435342534100284C
:104FF00006D1002BEDD065460120002D08D005E03C
:105000000020002B04D14B46002BE7D10120404269
:105010003CBC90469946A246AB46F0BD3E1C0643BA
:10502000CAD002204042F3E75E461643C7D0F8E7F5
:10503000AC4205DC09DA6346002BE7D00120E7E744
:1050400061460029E2D10120E2E75F4508D80CD093
:1050500000205F45DCD26646002ED7D00120D7E77E
:105060006546002DD2D10120D2E7D045F8D80020E6
:10507000D045F0D3CCE7C046FF070000F0B5564658
:105080004D4644465F46F0B40D1C83B0041C0190AD
:10509000E80F814618030F03000B3F0B8446384886
:1050A000009749005E00DF0F490D9246760DB84625
:1050B000814233D03248864235D0002917D0002EA5
:1050C0001ED1341C67463A4353425341002C1ED034
:1050D0000020002B04D14046002816D10120404278
:1050E00003B03CBC90469946A246AB46F0BD009842
:1050F000044360426041041C002EE3D00028EAD142
:10510000C14515D04F46002FE8D10120E8E7002B1C
:10511000F6D04B460120002BE2D0DFE7009F0220B3
:105120002743DDD1C6E7674602201743D8D1C4E73D
:10513000B14204DD48460028D0D10120D0E7B14279
:1051400004DA4B46002BC9D00120C9E7009F674510
:1051500009D80DD0009F00206745C1D24F46002FCF
:10516000BCD00120BCE74B46002BB7D10120B7E7EC
:1051700001985045F7D8019B00205345EED3AFE787
:10518000FF070000F0B5564644465F464D46F0B472
:105190001F1C0B031B0B9A464B0087B0041C804658
:1051A0005B0DC80F161C02938146002B68D0694B1B
:1051B0000299994232D08022534652031A43D200B8
:1051C000630F1A439246644AE000891880460291B0
:1051D000002400253B031B0B9B467800FB0F321C71
:1051E000400D039300D175E05A4B984269D080225C
:1051F000594652030A43730FD2001A43564B934643
:10520000C018F200002303994E4671401C430F2C36
:1052100000D9ABE0514EA4003459A74653461C4375
:1052200000D087E00025AA46A84608240225D1E739
:105230004946022D6CD0032D00D119E2012D00D07A
:105240005AE10D40EDB20024A9460023A0460020FB
:10525000002125030A0D1C052D0B1205404B2A4386
:10526000134023435B004C465B08E207191C404691
:10527000114307B03CBC90469946A246AB46F0BDF0
:105280005346234350D05346002B00D186E150466D
:1052900000F0E6FD031E272B00DD78E128210D1A22
:1052A000211C083B5246E9409A400D1C1543221C24
:1052B0009A40AA4690462B4B00241B1A02930025C5
:1052C00088E75B461E430323002E9CD1B346002291
:1052D000022398E75B46334321D05846002800D18B
:1052E00050E100F0BDFD272800DD44E128210F1A20
:1052F000021C311C083A5B46F94093400F1C1F43C7
:10530000331C9340BB461A1C164B181A00237AE72D
:1053100001230B4000249946A0460E4B97E7002737
:10532000BB46002201236EE7002104248A468846FA
:1053300001254FE70C2403254CE701235B420025A0
:105340009846A946084C034B81E7DA4690460399F4
:105350001D1C6EE7FF07000001FCFFFFA0640000BA
:10536000FFFF0F800DFCFFFFFFFF0F00029F160CD9
:10537000381804904046070C0004000C1204120C6C
:10538000031C5343041C3D1C7443554398463B1C6B
:1053900073436419A44644460293230C63449D421C
:1053A00004D9029D802464022D1902951D0C0395D9
:1053B00045462C041B04240C1C1905945C46230C44
:1053C000051C58432404240C8446381C6043654360
:1053D0005F438146CC44280C6044BB46814502D9DA
:1053E00080277F02BB442D04070C2D0C00044019BC
:1053F0005546BC462F04E3448446280C3D0C2F1C24
:105400005743B8462F1C77434243B94647463F0CA3
:105410009144BA46D14446434A4502D980225202B9
:10542000B6184F463A0CB6183A0447463F043F0CAC
:10543000B8462F1C67435D434443584365190190A8
:10544000380C2D184244B846AC4204D90198802348
:105450005B02C0180190039C029F201C6044C0198D
:105460006045A44147466442A4462B043C04994647
:10547000240C4C44A046D8448018C246E2449042D2
:105480009241574652429146F219E245BF417F424E
:105490004B46BC46D845BF41D4187F4263461F43A4
:1054A0002D0C7F19B24292414C45AD4152426D42A2
:1054B0001543019E7D19AB19E20D5B02059F134355
:1054C00042023A439A46531E9A41C30D101C184398
:1054D0006402204380465046C0010DD54546012256
:1054E0005646049C6B082A401A43F30701341A43BA
:1054F000760804949046B246049E634FF319002B3D
:1055000061DD404640070BD00F2244462240042A6A
:1055100006D0424604324245804140428244904691
:105520005546ED0107D5594B5646049F80201E4035
:10553000C000B2463B18564A934200DDE8E64446B6
:105540005546E2086807104301226C025B050A40D9
:105550008046240B5B0D914679E6DA4690461D1C89
:1055600067E680242403574627421CD13C4324038A
:10557000240B484B6BE6031C283B311C99408B469F
:105580000022C1E6301C00F06BFC2030ABE6283B6B
:10559000211C994000228A4690468CE6201C00F08F
:1055A0005FFC203076E65846204207D10443039939
:1055B0002403240B89469046364B48E63C4324039B
:1055C000240B344B43E6344B049E9B1B382B06DDE7
:1055D00001230B4000249946A046002337E61F2BE9
:1055E00025DC049C2D4D46466019524644468640B3
:1055F000DC4082405746301C2243DF40441EA0411D
:1056000002433B1C540709D00F201040042805D04A
:10561000101D9042924152429B18021C1D021AD545
:1056200001230B4000249946A04601230FE61C48A5
:10563000049C5546001BC540281C202B16D0194E33
:105640005746A21997403A1C43461A43531E9A41A3
:1056500002430023D6E758075B02D2081C0B012344
:105660000B401043994680460023F0E50022EBE70B
:105670008024240350460123044319402403240BAF
:105680008946044BE3E5C046FF030000FFFFFFFE31
:10569000FE070000FF07000002FCFFFF1E040000E1
:1056A000E2FBFFFF3E040000F8B55F465646444665
:1056B0004D46F0B40C034D00CF0F610A440F214357
:1056C000C4001803DE0F8046B44646465800760AEA
:1056D000530F3343D600D14A6D0DBA46400DB34641
:1056E000904200D1F5E0624601267240944667453B
:1056F00000D1ABE02F1A002F00DC11E100283ED1D1
:105700005846184300D0F1E0600700D197E00F231E
:105710002340042B00D122E1221DA242A441644275
:10572000802309191B04012750460B400740141C15
:10573000002B00D179E0B94B01359D4200D10BE13E
:10574000B74BE40819404807490204430B0B0020FB
:1057500000211B031A0B0B0D6D051B0513436A0873
:10576000B04DFF071D4015436D006D08291C3943DE
:10577000201C3CBC90469946A246AB46F8BDA748C3
:105780008542C1D0802000040343382F00DDFDE0B6
:105790001F2F00DD31E12020C01B1A1C5E46824015
:1057A000FE40324394465A468240101C421E9041AD
:1057B000FB40624602431F1CA21A9442A441644269
:1057C000C91B091B141C0A029ED549024F0A002F4F
:1057D00000D1D6E0381C00F043FB021C083A1F2A17
:1057E00000DDC3E02821231C091A9740CB401F434A
:1057F0009440954200DDC0E0551B691C1F2900DD67
:10580000EAE01F22551B3B1C221CAB40CA40AC40A7
:10581000651EAC411343CF401C43391C002573E780
:10582000082481497D4D002764427C4B4807E408E9
:105830000443C9089D4250D009030B0B87E780231E
:105840001B04012752460B40174071E72A1A944661
:10585000002A00DCA1E0002854D07048854200D125
:1058600052E78020000403436046382800DD10E141
:105870001F2800DD59E162462020801A1E1C864048
:10588000B1465E46D6404A4632435E468640904622
:10589000301C421E9041424602436046C3401219EA
:1058A000A242A441644259180919141C080200D4E8
:1058B0002AE75A4B01359D4200D133E1584B60082D
:1058C0001940012323401C1C0443CB071C434908F7
:1058D0001AE71E4300D00AE705E7231C0B433BD021
:1058E00080231B030B431B031B0B30E7013F002FDF
:1058F0006DD15E46A21B9442A4416442C91A091BA1
:10590000141C60E75846184300D1FDE60126764294
:10591000B4446046002800D0D2E05E463219BFE7AA
:10592000002F00D082E0681C4005400D012800DCFB
:10593000EAE05A46A21A9442BF41C81A7F42C71BE6
:105940003E0200D49AE05846041BA3459241591ADE
:1059500052428F1AE2463AE700230024F7E68023FA
:105960001B04012756460B403740E1E6271C283828
:1059700087400024954200DC3EE72949AD1A3940B2
:10598000C2E6201C00F06CFA203026E75A461A4383
:10599000531E9A41D2B200270EE7002A00D0E0E061
:1059A000681C4605760D012E00DC92E01B4DA842D6
:1059B00000D1F7E05E463219A242A4416442591870
:1059C0000919CC07520814434908051C9CE61348E2
:1059D000854200D0D9E697E62B1C1F3B3E1CDE40DB
:1059E000331C202971D03F22551BAF403C43601E21
:1059F00084411C430021002586E6381C20381E1CEB
:105A0000C640301C202F62D04022D71BBB405A46D4
:105A10001A43531E9A4102430027CDE6FF070000B8
:105A2000FFFF7FFFFFFF0F80FFFF7F00002D37D0BC
:105A3000B64DA84200D18FE080252D047F42294336
:105A4000382F00DDA8E01F2F00DD24E12025ED1B0D
:105A50000E1CAE40B046261CFE404246AC401643EB
:105A6000651EAC413443F9405A46141BA34592418C
:105A70005B1A5242991A051CE246A4E6131C3B43EA
:105A8000141C002B00D0A2E60027002100240025D2
:105A9000CBE65A461A43531E9A41D2B20023FEE681
:105AA0000D1C254358D0FF43002F51D15A46141BDB
:105AB000A3459241591A5242891A051CE24682E6D0
:105AC0009248854200D0CFE61EE600278EE70023ED
:105AD0009DE7081C2043002D00D0C2E0002800D123
